:020000040000FA
:1000000090240020C1000000ED0A0000310A000029
:10001000FFFFFFFFFFFFFFFFFFFFFFFFFFFFFFFFF0
:10002000FFFFFFFFFFFFFFFFFFFFFFFF510C00007F
:10003000FFFFFFFFFFFFFFFF110C0000530C00004C
:1000400035010000350100003501000035010000D8
:1000500035010000350100003501000035010000C8
:1000600035010000FFFFFFFF35010000810900009E
:10007000850800003501000035010000FFFFFFFF8B
:10008000FFFFFFFF310300003501000035010000D4
:100090003501000035010000350100003501000088
:1000A0003501000035010000350100003501000078
:1000B0003501000035010000350100003501000068
:1000C0001D4880471D4880471D4800471D4801695D
:1000D000002908D14169002905D18169002902D18F
:1000E000C169002909D01848C1680901090D002912
:1000F0000ED005290CD006290AD0BFF34F8F134824
:100100001349016013491248C860BFF34F8FFEE7DF
:100110000E4801680E48884200D070470E480F49CB
:1001200001600A480E4901607047FEE7FEE7FEE7FE
:10013000FEE7FEE7FEE70000CD000000550C0000E2
:100140006501000000030840800108400000002015
:100150000400FA0500ED00E0008108400100000005
:10016000000000000348854600F060F800480047A2
:10017000B11400009024002030B50B460146002049
:100180002022012409E00D46D5409D4205D31D469D
:100190009540491B2546954040191546521E002D95
:1001A000F1DC30BD70B500242546002801DA0124B9
:1001B0004042002901DA01254942FFF7DDFFAC4248
:1001C00000D04042002C00D0494270BDF0B51FB4B1
:1001D0000646002082B005464024019100901BE0B5
:1001E000019922460F46304600F042F8049A059BDA
:1001F000801A994110D310461946224600F028F87B
:10020000361A8F410197224601200021009F00F0FD
:100210001FF838184D4100902046641E0028DFDC8E
:10022000019B00982946324607B0F0BD064C0125D7
:10023000064E05E0E36807CC2B430C3C984710348E
:10024000B442F7D3FFF792FF70240000902400001F
:1002500010B5202A04DB0146203A9140002010BD51
:10026000914020239C1A0346E3401943904010BD5F
:1002700010B5202A04DB0846203AD040002110BDEA
:100280000B46D340D0402024A21A9140084319467F
:1002900010BD0000F7B50B46009DED00154EAA19E4
:1002A000002000240027002120E000240027FF2553
:1002B0008D401D40002D17D000200FE01D46C54089
:1002C00001268E403540002D07D086000F25B54011
:1002D0002C438600029DB5402F43401C0828EDD3D7
:1002E0001568A5433D431560121D08310829DCDD62
:1002F000FEBD00002020024010B50A210A48006817
:10030000FFF73AFFC4002146084800F0B4F8002186
:10031000064800F0B2F80121044800F0A0F80121DD
:10032000024800F090F810BDF40000200060074083
:1003300010B5294800F080F82848008881B2284884
:1003400000F06CFA012843D12648007801283FD1FB
:1003500024484088401C2349488008464088032898
:1003600039DB21480078012808D100201E49087097
:100370001E4801781EA000F02BFE07E0002019495E
:1003800008702448017824A000F022FE00201549BE
:10039000488001F047FC0A221146104601F082FD18
:1003A0000A221146104601F0B1FF0A231A461946E7
:1003B0001848007801F002FD01F0C0FF00BF0748B7
:1003C000008881B2064800F029FA0128F7D002E03F
:1003D00000200449488010BD0060074094230000BD
:1003E00000400B4004000020120000201C000020F0
:1003F000537769746368696E67206D7573696320EC
:100400007374617274696E672061742025640D0ACB
:100410000000000021000020537769746368696E52
:1004200067206D6F6465207374617274696E6720F4
:1004300061742025640D0A00416849084900416043
:10044000BFF34F8F7047002904D0026804231A437A
:10045000026003E0026804239A43026070470029A7
:1004600004D0026801231A43026003E002685208C4
:10047000520002607047C1607047816070470000A1
:100480000EB50622012109030220FFF703FF062211
:10049000012149030220FFF7FDFE4B20C00100901F
:1004A000FF210131684681800021C18001814181A5
:1004B0006946074800F034FD01220021044800F09D
:1004C00077FD01221146024800F072FD0EBD0000CA
:1004D000001004400EB50020009001900290012110
:1004E0000904009888434018009049000098884308
:1004F0004018009049000098884340180090490037
:100500000098884340180090C91201988843401809
:1005100001904900019888434018019049000198D2
:100520008843019049000198884340180190C90010
:100530000198884340180190490001988843401869
:100540000190C9110298884340180290490002980E
:10055000884340180290C903029888430290091208
:100560000298884340180290029840084000401CBE
:1005700002901021009888431030009001236846B3
:1005800007C800F097F80EBD70B504461F48406BD1
:100590004607760F00F03EF82060330000F028FD9B
:1005A000081605080B16160E12162068606010E07B
:1005B000174860600DE0164860600AE00120C00343
:1005C000606006E07D200002606002E00020606064
:1005D00000BF00BF0D48056A052D02D360684009C1
:1005E00001E06068E840A0600848806A07210904CB
:1005F0000840050C072D04D10321A068FFF7BCFDBE
:1006000001E0A068E840E06070BD000000800840A4
:1006100000127A00F0B517480068FF27013738400C
:10062000040A1448C069C50F124840687F0038406A
:10063000460A002E01D10020F0BD002C01D10E4849
:1006400000E00D480346012D01D11846F4E70948A2
:1006500080690F27FF053840C10D002900D1102106
:100660000448806903277F053840420D18464843F7
:10067000D040E1E70080084000127A007FB50446D0
:10068000601180000A49461800252E2C00D1022551
:10069000E406E40E0321A14030680840E04045191B
:1006A0006846FFF771FF0298E84004B070BD000093
:1006B000388008403FB50E4C606AE16A226B044600
:1006C000009DAC4320460C46019DAC432146144698
:1006D000029DAC432246002B05D0009C2043019C88
:1006E0002143029C2243024C6062E16222633FBDCF
:1006F0000080084010B50120394908700EE03848E4
:1007000000788000374A105A81B20122364800F042
:1007100071F833480078401C31490870304800783F
:100720000328ECDD08202E49087018E02C480078DA
:1007300080002C4A105A81B200222B4800F05AF84F
:10074000274800788000274A105A81B201222648A3
:1007500000F05AF822480078401C214908702048CF
:1007600000780F28E2DD1F48008881B200221F4870
:1007700000F040F81B48008881B201221B4800F0BD
:1007800043F80820164908700EE0154800788000EC
:10079000144A105A81B20122144800F02BF8104874
:1007A0000078401C0E4908700D4800780B28ECDDDD
:1007B00000200B4908700EE0094800788000094AC3
:1007C000105A81B201220A4800F014F80448007857
:1007D000401C03490870024800780228ECDD10BD77
:1007E000F0000020EC23000000000B4000400B4014
:1007F00000600B40002A03D003680B43036002E053
:1008000003688B4303607047002A03D043680B439F
:10081000436002E043688B43436070470246D369FC
:100820000B40002B01D0012000E000207047014662
:10083000CA6990B27047000010B50F4800F05AFB2B
:1008400000200D4988600D48088000204880FF2066
:10085000013088810A4800F02DFBFF210131084852
:1008600000F09AFA01221102054800F0A6FA0121CF
:10087000034800F096FA10BD30010020A08C000063
:1008800000E0064010B5FF210131264800F084FA4F
:100890000020254908702CE0234800788000234977
:1008A000085C002820D1204800788000401840884B
:1008B000401C1D49097889001C4A891848801A483B
:1008C000007880001146401840887D210901884247
:1008D0000AD3012014490978890050540020124994
:1008E00009788900891848800F480078401C0E4913
:1008F00008700D4800780828CEDB0D4800780028E5
:100900000FD10B484088401C094948800846408860
:100910004B21C900884204DB0020054948800120A2
:10092000087010BD00E006402000002010010020EB
:100930000000002010B50F4800F0DCFA00200D493F
:1009400088600D48088000204880FF2001308881A1
:100950000A4800F0AFFAFF210131084800F01CFA04
:1009600001221102054800F028FA0121034800F095
:1009700018FA10BD30010020A08C000000F00640E5
:1009800010B5FF2101310C4800F006FA0B48007841
:10099000002801D100F0E8FF01F0D2F808484088B3
:1009A000401C0749488008464088052803DB002092
:1009B000488001F0C3FC10BD00F006400400002098
:1009C0000C000020FEB505460E46280117494418C4
:1009D0000020009001900290012149020198884373
:1009E0004018019049010198884340180190012363
:1009F000684607C8FFF75EFE227AE1882079FFF794
:100A000049FCA27BA189A07AFFF744FC314620680B
:100A100000F086FA01220021206800F0C9FA0122C4
:100A20001146206800F0C4FAFEBD000060240000FA
:100A300000BF024800680028FBD07047EC0000208F
:100A400010B500201C49087048801C49087009E056
:100A5000FF201B49194A1278885418480078401C16
:100A600016490870154800780328F1DB0020134967
:100A700008700BE00020114909788900114A891893
:100A800048800E480078401C0C4908700B480078DC
:100A90000828EFDB0120094909788900094A5054E8
:100AA0000020094908704880084908700848007803
:100AB00001F018F810BD0000000000201D0000200B
:100AC00016000020100100200C000020040000206F
:100AD0001A000020002904D0026F10231A43026775
:100AE00003E0026F10239A4302677047704710B506
:100AF0000C2000F007F80B2000F004F8112000F0A3
:100B000001F810BDC206D20E01219140014A1160C8
:100B10007047000000E100E010B5054A926A8300CA
:100B2000C4180B46A3401A43014B9A6210BD000043
:100B30000001094010B50246062353439B00094CAF
:100B400018194C690B6923438C69234303600B68B4
:100B500043604B6883600B891B04CC6823430361AB
:100B600010BD00000000094010B5024606235343A3
:100B70009B00074C1819002904D003680124234363
:100B8000036003E003685B085B00036010BD0000C6
:100B90000000094010B502460648006A9300D418C8
:100BA0000B46A3401840002801D0012010BD0020B2
:100BB000FCE700000001094070B51346002203283D
:100BC0000DD102240C40002C02D00124E402224367
:100BD00004240C40002C02D0012424032243002BC7
:100BE0000AD00A4C256B840006190C46B440144305
:100BF0002543064C256308E0044C246B8500461908
:100C00000D46B540AC43014D2C6370BD0001094059
:100C100070470EB5E12040020090FF210131684687
:100C200081800021C1800181418169460020FFF758
:100C3000C9FE0EBDC1B2054A116000BF0349096972
:100C4000FF22013211400029F8D070470000044013
:100C50007047704710204B49C86001204A4908601E
:100C60004A48006B402108434849086300BF484890
:100C700080682728FBD14548406A032189028843C0
:100C800042494862084640680121C90208433F4979
:100C9000486000BF3D4880680007C00F0028F9D0B9
:100CA0003A484068C008C000C01C3849486000BFCE
:100CB0003648406B4007400F0328F9D1354800689B
:100CC000C008C000401C3349086000202F4908625A
:100CD00008464068491588432C4948600846006822
:100CE00089150843294908600846406809150843E2
:100CF0002649486000BF254880684007C00F00288B
:100D0000F9D02248006B40218843204908630846F7
:100D10000068891588431D49086003200006886122
:100D200008464068491508431849486000BF1748FD
:100D300080688007C00F0028F9D016480068C008F6
:100D4000C000801C13490860002010490862084652
:100D50004068C008C000401C486000BF0B48406BA2
:100D60004007400F0128F9D10A48006810210843C4
:100D7000084908600846006801210903084305493D
:100D800008607047008108400083084000800840E8
:100D900000A1064000020840CA43C267BFF34F8F5C
:100DA0007047002904D0026901231A43026103E05D
:100DB00002695208520002617047002A03D0436F53
:100DC0000B43436702E0436F8B4343677047000068
:100DD000FCB50D78AD0006464036AC190D78AD0077
:100DE0005036AD1901950D78AD001036AD1900954E
:100DF0000D786D062A0E03259540EF43274DA84236
:100E000003D103259540EF4302E001259540EF43D0
:100E1000224DA84200D100BF056D3D400565436DE0
:100E20003B401E4DA84206D18D79CE7976003543E0
:100E300095402B4302E08D7995402B434365174D38
:100E4000A84209D1C56E3D402B460D7A4E7A7600F8
:100E5000354395402B43C3662568FF260836B543C6
:100E6000256025684E88354325604E89019D2E609A
:100E70008E89009D2E60094DA84208D10D794E79CA
:100E8000760035439540066D3543056504E0056DF4
:100E90000E79964035430565FCBD000000C0024058
:100EA000002A03D0436F0B43436702E0436F8B4339
:100EB000436770470B88882213504B888422135055
:100EC000026803231B049A430260026801231B0685
:100ED0009A43026002688B681A430260044A904297
:100EE00002D10B798C2213508A89826770470000E7
:100EF00000C0024000218160491E01800021418024
:100F0000FF21013181810021017170470246106982
:100F10000840002801D0012070470020FCE70000B5
:100F200070B504460D4660681C490840E9880843CE
:100F3000A98808432989084369890843606001201A
:100F40008007844207D11820FFF798FB06462968DE
:100F5000FFF712F960621248844207D11A20FFF7A6
:100F60008DFB06462968FFF707F960620D48844249
:100F700007D11C20FFF782FB06462968FFF7FCF823
:100F800060620948844207D11E20FFF777FB0646BE
:100F90002968FFF7F1F8606270BD0000FCE0FFFF18
:100FA0000000044000100040001004400160704741
:100FB00010B5002A05D0436810248C4023434360B9
:100FC00004E0436810248C40A343436010BD00003C
:100FD0000FB410B503A9044B044A029800F026F898
:100FE00010BC08BC04B01847A1140000F800002091
:100FF00030B47446641E2578641CAB4204D3635D30
:101000005B00E31830BC18471D46F8E702E008C84B
:10101000121F08C1002AFAD170477047002001E072
:1010200001C1121F002AFBD170470000FFB591B02B
:101030000F460546002606E025280AD0149A139983
:1010400090476D1C761C28780028F5D1304615B0E5
:10105000F0BD002400940121F34A029400E004430F
:101060006D1C2B780846203B98401042F7D1287819
:101070002A280ED0022128780246303A092A15D8AB
:10108000009A0A235A43303A80180C436D1C009092
:10109000F1E701CF0090002805DA01204003044366
:1010A000009840420090022004436D1C28782E28AE
:1010B00015D10420044368786D1C2A280AD101CF79
:1010C0006D1C02900BE002990A22514330394018FE
:1010D0006D1C02902878014630390929F3D9287807
:1010E0006C2810D006DC4C281AD068280ED06A284C
:1010F00017D104E0742813D07A2812D110E001200F
:10110000400504430CE00121090501E00321090524
:101110000C436978814203D10120000524186D1C1D
:101120006D1C287803906E281ED00CDC632831D00B
:1011300004DC00288AD0582811D1B2E064287BD082
:1011400069280CD178E073282DD004DC6F2870D08A
:10115000702804D1A7E075286CD078286BD0149A39
:1011600013999047761C62E06002400F022807D076
:1011700003280AD0042838680AD006603F1D56E0CC
:101180003868F11706604160F8E738680680F5E7CF
:101190000670F3E73878694608740020487404A89C
:1011A0000390012003E0386803900020C0433F1DF6
:1011B00061070FD5002101E00199491C029A0191B4
:1011C000914213DA8142F7DB019A0399895C002985
:1011D000F2D10BE0002101E00199491C019181420B
:1011E000FADB019A0399895C0029F5D101990098ED
:1011F000139A401A00902146149B00F03BF9019984
:101200008019461807E0039803990078491C039158
:10121000149A139990470198401E0190401CF2D1F6
:101220002146149B139A009800F014F986196D1C3E
:1012300009E741E033E034E00A2000210490059101
:101240006002410F022905D001CFC217944603293D
:1012500005D007E0FF1DFF08FF0003CF06E000B246
:10126000C2179446042902D140B2C1178C4600220D
:101270006146944506DA0A460021404291418C4677
:101280002D2102E0210504D52B216A46117601218A
:1012900003E0E10701D02021F7E7019154E00A20A3
:1012A0000BE0102009E010200490002104200443EA
:1012B00008200591029003E0082000210591049088
:1012C0006002410F022905D001CF00229446032974
:1012D00006D006E0FF1DFF08FF0003CF8C4603E0A9
:1012E00080B2042900D1C0B20021019121072BD581
:1012F0000399702906D0049A1021059B4A401A438D
:1013000005D00EE040216A461176012108E06146D1
:10131000014306D030216A461176039951760221A5
:101320000191049A0821059B4A401A430CD1614659
:10133000014301D1610707D530216A4611760121A9
:1013400001910299491E02910399582904D037A1AD
:1013500003910FA90F910DE039A1F9E76146059BB3
:10136000049AFEF733FF039B8C469B5C0F9A521E38
:101370000F92137061460143F0D10F9807A9081A24
:1013800020300390600704D50120000484430298B4
:1013900001E0012002900399884201DD401A00E03B
:1013A000002041180290019809180098401A0090F6
:1013B000E00306D42146149B139A009800F05AF8D3
:1013C00086190020049008E006A9085C149A139975
:1013D00090470498401C761C049001998842F3DBE6
:1013E000E0030CD52146149B139A009800F042F8B4
:1013F000861904E0149A302013999047761C0299BC
:10140000481E02900029F5DC08E00F980F9900783B
:10141000491C0F91149A13999047761C0399481E02
:1014200003900029F1DCFBE609280100303132335A
:101430003435363738396162636465660000000010
:1014400030313233343536373839414243444546FA
:1014500000000000F8B5044600251E461746880423
:1014600004D405E039462020B0476D1C641EF9D530
:101470002846F8BDFFB50446002581B01E46C803C6
:1014800001D5302700E02027880404D505E0384640
:101490000399B0476D1C641EF9D5284605B0F0BD10
:1014A00070B504460D462046FFF7C4FB70BD000032
:1014B000FFF7C6FAFFF71BFBFFF70CF8FFF7A9FBD6
:1014C000FFF718F9FFF7B8F9FFF7DCF9FFF732FA81
:1014D000FFF756FAFEF710FFFEF72AFFFEF7D0FFE0
:1014E00000F0D2FB642000F079FB3CA0FFF770FD18
:1014F00072E043480078002802D100F09BF86BE0CE
:1015000040480078502867D03E480078512863D082
:101510003C48007852285FD13B480078002802D12F
:1015200000F038F958E000F0AFFA002037490870B1
:1015300047E037493548007800F0CCFC00203549B9
:101540000870354908703549087031482F490978C5
:10155000405C3349087026E03248FFF768F9001212
:10156000C043314908702E4800780978884206D176
:101570002B480078002802D001202749087026480F
:10158000007801280FD12548007800280BD1274882
:101590000078401C254908700846007800F0A2FA3F
:1015A00001201E4908701B4800780028D4D0164836
:1015B0000078002800D10BE014480078401C134943
:1015C0000870124801781A4800780A308142B0DB6E
:1015D00000BF00200C4908708BE700000D0A3D3D5C
:1015E0003D3D3D3D3D3D3D3D3D3D53657420757068
:1015F0003D3D3D3D3D3D3D3D3D3D3D0D0A00000035
:101600000400002021000020120000201E00002005
:101610002300002000000020100000201100002006
:101620001F00002000000B40150000201A000020C1
:101630001B00002010B50A221146104600F032FCB3
:101640000A221146104600F061FE6FE04648008C09
:1016500081B24648FFF7E2F800282FD11E2211463A
:10166000104600F01FFC00BF3F48008C81B23F488D
:10167000FFF7D4F80028F7D00A221146104600F0F0
:1016800011FC3B480078502805DD39480078401EA1
:101690003749087002E05220354908705221502025
:1016A00000F0D8FA3248017832A0FFF791FCFF2011
:1016B0009130344948800120334908702A48808F8E
:1016C00081B22A48FFF7AAF800282FD11E2211461E
:1016D000104600F01BFE00BF2348808F81B22348D4
:1016E000FFF79CF80028F7D00A221146104600F0B8
:1016F0000DFE1F480078522805DA1D480078401C6E
:101700001B49087002E050201949087052215020EE
:1017100000F0A0FA1648017816A0FFF759FCFF2048
:101720009130184948800120174908700E480088F8
:1017300081B21648FFF772F8012887D11449087062
:101740000B4801780BA0FFF743FC4F21002000F06D
:1017500081FA00BF0448008881B20C48FFF75EF8A8
:101760000128F7D010BD00009423000000000B40BA
:10177000210000204D6F64653A20253032640D0A47
:1017800000000000080000202200002000400B4064
:101790000400002010B500F045FA0A221146104658
:1017A00000F080FB0A221146104600F0AFFD002336
:1017B0001A460A215A48007800F091FC79E059480D
:1017C000008C81B25848FFF729F8002834D11E2236
:1017D0001146104600F066FB00BF5248008C81B2F3
:1017E0005148FFF71BF80028F7D04D480078012832
:1017F00005DD4B480078401E4949087002E003208F
:10180000474908704F21002000F024FA0A221146AF
:10181000104600F047FB0A221146104600F076FD04
:1018200000231A460A213E48007800F058FC3C4844
:1018300001783EA0FFF7CCFB3A48808F81B23A484E
:10184000FEF7ECFF002834D11E221146104600F0AE
:101850005DFD00BF3348808F81B23348FEF7DEFF65
:101860000028F7D02E480078032805DA2C480078A5
:10187000401C2B49087002E00120294908704F21C3
:10188000002000F0E7F90A221146104600F00AFB9A
:101890000A221146104600F039FD00231A460A219B
:1018A0001F48007800F01BFC1D4801781FA0FFF7BF
:1018B0008FFB1C48008881B22048FEF7AFFF01284B
:1018C00000D07CE700BF1748008881B21B48FEF7B4
:1018D000A5FF0128F7D01A48007801281FD119491F
:1018E00008700F480078012804D0022806D0032889
:1018F0000CD107E030201449087008E0302012496C
:10190000087004E020201049087000E000BF00BF0C
:101910000E4801780EA0FFF75BFB00F083F910BDC5
:101920001C0000209423000000000B404D757369DB
:10193000633A20253032640D0A00000000400B405D
:1019400004000020120000201B00002021000020C5
:1019500053656C6563746564204D757369633A20E3
:10196000253032640D0A000010B535480078012892
:1019700065D10020334908705DE0324800780830B6
:101980008000314A105A81B23048FEF747FF304993
:101990002C4A1278895C88423ADB2A480078083061
:1019A0008000294A105A81B22848FEF737FF28499B
:1019B000244A1278895C88422ADD22480178012075
:1019C0008840244908701F48007880002249085C3C
:1019D000012818D11F4801782048FFF7E7FA00BF17
:1019E000FF2101311D48FFF791FA0028F8D00020AF
:1019F000144909788900184A50541648017818A0EB
:101A0000FFF7E6FA04E0134801781AA0FFF7E0FABE
:101A10000C480078083080000B4A105A81B20B48FD
:101A2000FEF7FCFE0A49074A1278885405480078F8
:101A3000401C044908700348007808289DDB10BD4D
:101A400004000020E90000209423000000000B4067
:101A5000E0000020E80000201001002000100440F9
:101A60000D0A53656E642025782073756363657372
:101A7000732E00000D0A53656E6420257820666180
:101A8000696C65642E00000010B50A2112480078C8
:101A900000F06AFA00BF1148008881B21048FEF7D2
:101AA000BDFE0128F7D132210B48007800F05CFA26
:101AB00000BF0A48008881B20948FEF7AFFE01283E
:101AC000F7D005480078002801D1012000E000206F
:101AD0000149087010BD000014000020942300008C
:101AE00000400B4010B50446002C02D1124908708A
:101AF00020E000201149087018E00A212046FEF776
:101B000051FBC8B20C490D4A12788854002C03D1FD
:101B1000FF200A4A127888540A212046FEF742FB29
:101B200084B206480078401C0449087003480078D5
:101B30000428E2DB10BD000016000020DF000020BA
:101B400010B51E480078002830D11D484088401C40
:101B50001B49488008464088FF21913188422CDB90
:101B6000002017494880012008705221502000F0C1
:101B700071F814480078012807D10A231A4619463B
:101B80001148007800F01AF906E000231A461946B9
:101B90000D48007800F012F90A480078002801D1B9
:101BA000012000E000200749087006E000231A46E3
:101BB0000A210548007800F001F910BD040000205A
:101BC00008000020220000202100002010B504227F
:101BD00001210846FEF75EFB10BD000010B504466B
:101BE0000E48444300200E4908700BE032231A4689
:101BF00019460B48007800F0E1F809480078401CCD
:101C000007490870064800785328EFDB00BF2046DC
:101C1000641E0028FBD100F005F810BD102700005D
:101C2000F100002000B50020094908700BE00023F6
:101C30001A4619460648007800F0C0F804480078B3
:101C4000401C03490870024800785328EFDB00BDB0
:101C5000F100002030B504460D460A4804700BE040
:101C600000231A4619460748007800F0A7F80548EF
:101C70000078401C0349087002480078A842EFDD54
:101C800030BD0000F100002010B5FFF79FFF00F00D
:101C900063F800F02BF801211148FEF71BFF00202C
:101CA0001049087014E000200E49097889000E4A96
:101CB00050500C4909788900603250500949097820
:101CC00089006032505007480078401C0549087070
:101CD000044800781828E6DBFFF7A4FF10BD0000D9
:101CE00000C00240F1000020D02100201F2001216F
:101CF0008140024A116000BF7047000000E100E02F
:101D000010B512481249086012484860812000014D
:101D100088600120C8600820086103200002486133
:101D20006120400188610520FEF704FF082105209D
:101D3000FEF7F2FE012208210520FEF73DFF0122F9
:101D4000110604489438FFF7ABF810BDB00200202C
:101D50006001002094C0024010B53B201449088067
:101D60000020488008718860FF2001308881114878
:101D7000FFF7A0F8FF2101310E48FFF70DF8012110
:101D80000C48FFF70EF801200B4908700620488028
:101D900001200871002048718871C8710872012003
:101DA0004872002048810348FFF712F810BD000078
:101DB0004001002000C002405001002070B5002406
:101DC000354D2C70354D2C7019E0344C2478072596
:101DD0002D1B14462C41E407E40F002C01D02625CE
:101DE00000E01325602444432D4EA4192B4E367871
:101DF000B600A551294C2478641C284D2C70274C22
:101E00002478082CE1DB0724244D2C7019E0234CA6
:101E100024780F252D1B0C462C41E407E40F002CE1
:101E200001D0262500E01325602444431C4EA4194C
:101E30001A4E3678B600A551184C2478641C174DFC
:101E40002C70164C2478102CE1DB0F24134D2C70D1
:101E500019E0124C247817252D1B1C462C41E40751
:101E6000E40F002C01D0262500E013256024444314
:101E70000B4EA419094E3678B600A551074C2478AC
:101E8000641C064D2C70054C2478182CE1DB0124D1
:101E9000014D2C7070BD000013000020F3000020E5
:101EA000B002002070B504460D46164633462A4659
:101EB00021463920FFF782FF33462A46214640203B
:101EC000FFF77CFF33462A4621464920FFF776FF7D
:101ED00070BD000070B504460D460A202049087008
:101EE00039E000201F4908702CE01D4800782018B8
:101EF000285C1C4909780841C007C00F00280ED093
:101F000017490978C900174A1278891A5022511ABC
:101F1000C8B20A231A461946FFF750FF0DE01049D0
:101F20000978C9000F4A1278891A5022511AC8B28A
:101F300000231A461946FFF741FF0A480078401C63
:101F400008490870074800780828CEDB0448007864
:101F5000401E03490870024800780028C1DC70BDAB
:101F6000EA000020EB00002030B505460C46012DAC
:101F700060D10023224619461220FFF71FFF0023DD
:101F8000224619461A20FFF719FF00232246194658
:101F90001B20FFF713FF0023224619462220FFF7DC
:101FA0000DFF0023224619462320FFF707FF0023D9
:101FB000224619462420FFF701FF00232246194636
:101FC0002A20FFF7FBFE0023224619462B20FFF7AD
:101FD000F5FE0023224619462C20FFF7EFFE0023D2
:101FE000224619462D20FFF7E9FE00232246194616
:101FF0003220FFF7E3FE0023224619463320FFF785
:10200000DDFE0023224619463420FFF7D7FE0023C9
:10201000224619463A20FFF7D1FE002322461946F0
:102020003B20FFF7CBFE0023224619464220FFF754
:10203000C5FE53E000231A4621461220FFF7BEFEDC
:1020400000231A4621461520FFF7B8FE00231A4642
:1020500021461A20FFF7B2FE00231A4621461D2012
:10206000FFF7ACFE00231A4621462220FFF7A6FE0A
:1020700000231A4621462520FFF7A0FE00231A461A
:1020800021462A20FFF79AFE00231A4621462D20DA
:10209000FFF794FE00231A4621463220FFF78EFEFA
:1020A00000231A4621463520FFF788FE00231A46F2
:1020B00021463A20FFF782FE00231A4621463D20A2
:1020C000FFF77CFE00231A4621464220FFF776FEEA
:1020D00000231A4621464520FFF770FE30BDF0B5BB
:1020E00004460D4616461F46012C54D13B46324647
:1020F00029460420FFF762FE3B46324629460B2064
:10210000FFF75CFE3B46324629460C20FFF756FEA1
:102110003B46324629461220FFF750FE3B463246E8
:1021200029461420FFF74AFE3B46324629461C202A
:10213000FFF744FE3B46324629462420FFF73EFE89
:102140003B46324629462C20FFF738FE3B463246B6
:1021500029463420FFF732FE3B46324629463C20D2
:10216000FFF72CFE3B46324629464220FFF726FE6B
:102170003B46324629464320FFF720FE3B46324687
:1021800029464420FFF71AFE3B46324629464520A1
:10219000FFF714FEB9E0022C54D13B4632462946E3
:1021A0000320FFF70BFE3B46324629460420FFF78B
:1021B00005FE3B46324629460A20FFF7FFFD3B4617
:1021C000324629460D20FFF7F9FD3B4632462946A7
:1021D0001520FFF7F3FD3B46324629461D20FFF749
:1021E000EDFD3B46324629462520FFF7E7FD3B46FD
:1021F000324629462C20FFF7E1FD3B463246294670
:102200003320FFF7DBFD3B46324629463A20FFF7F5
:10221000D5FD3B46324629464220FFF7CFFD3B46DF
:10222000324629464320FFF7C9FD3B463246294640
:102230004420FFF7C3FD3B46324629464520FFF7C1
:10224000BDFD62E0032C5AD13B46324629460320AD
:10225000FFF7B4FD3B46324629460420FFF7AEFDAA
:102260003B46324629460A20FFF7A8FD3B46324648
:1022700029460D20FFF7A2FD3B4632462946152090
:10228000FFF79CFD3B46324629461D20FFF796FD91
:102290003B46324629462220FFF790FD3B46324618
:1022A00029462320FFF78AFD3B4632462946242053
:1022B000FFF784FD3B46324629462D20FFF77EFD81
:1022C0003B46324629463520FFF778FD3B463246ED
:1022D00029463A20FFF772FD3B46324629463D200B
:1022E000FFF76CFD3B46324629464320FFF766FD6B
:1022F0003B46324629464420FFF760FD05E03B4659
:10230000324629460020FFF759FDF0BD70B504465E
:102310000D46164633462A4621463E20FFF74EFD1F
:1023200033462A4621464720FFF748FD33462A46D2
:1023300021464E20FFF742FD70BD000010B5FFF7AB
:10234000DFFC08210520FEF7E7FB012211061048FB
:10235000FEF7A6FD01210E48FEF723FD0121052011
:10236000FEF702FC00BF08210520FEF713FC002841
:10237000F9D00022012109060548FEF791FD002150
:102380000348FEF70EFD00210520FEF7EDFB10BD12
:1023900000C0024001000000020000000400000034
:1023A00008000000100000002000000040000000B5
:1023B0008000000000010000000200000004000096
:1023C0000008000000100000002000000040000095
:1023D0000080000058020000010002000400080014
:1023E0001000200040008000D00700000100000025
:1023F00002000000040000000800000010000000BF
:1024000020000000400000008000000000010000EB
:10241000000200000004000000080000001000009E
:1024200000200000004000000080000000000B4081
:1024300000200B4000400B4000600B4000000000FB
:1024400000000000020202000040008002000101C2
:10245000010103030010020004000101010C01024C
:1024600000000440000010000600000020000600EC
:102470009024000000000020000100000C1000006B
:102480009025000000010020902300001C10000097
:10249000000000000000000000000000000000003C
:1024A000000000000000000000000000010000002B
:1024B00000500000000000000000000000010204C5
:1024C000081020408001020408102040800102040E
:1024D00008102040800102040810204080010204FE
:1024E00008102040800102040810204080000000F5
:1024F00000000000000000000000000000000000DC
:1025000000010000020400000104000100040000BA
:102510000002000004080804020800000000000097
:102520000004000008100000041000040010000067
:10253000000000000000000000000000000000009B
:1025400000000000008040201008040201804020AC
:10255000100804020180402010080402018040207D
:10256000100804020100000000000000000000004C
:10257000010000000000000000000000000000005A
:1025800000000000006CDC02000000000000000001
:04000005000000C136
:00000001FF
